{
  "contractName": "HelloWorld",
  "abi": [
    {
      "inputs": [],
      "name": "num",
      "outputs": [
        {
          "internalType": "uint256",
          "name": "",
          "type": "uint256"
        }
      ],
      "stateMutability": "view",
      "type": "function",
      "constant": true
    },
    {
      "inputs": [
        {
          "internalType": "uint256",
          "name": "_i",
          "type": "uint256"
        }
      ],
      "name": "requireSample",
      "outputs": [
        {
          "internalType": "string",
          "name": "",
          "type": "string"
        }
      ],
      "stateMutability": "pure",
      "type": "function",
      "constant": true
    },
    {
      "inputs": [
        {
          "internalType": "uint256",
          "name": "_i",
          "type": "uint256"
        }
      ],
      "name": "revertSample",
      "outputs": [
        {
          "internalType": "string",
          "name": "",
          "type": "string"
        }
      ],
      "stateMutability": "pure",
      "type": "function",
      "constant": true
    },
    {
      "inputs": [
        {
          "internalType": "uint256",
          "name": "_i",
          "type": "uint256"
        }
      ],
      "name": "assertSample",
      "outputs": [],
      "stateMutability": "view",
      "type": "function",
      "constant": true
    }
  ],
  "bytecode": "0x60806040526000805534801561001457600080fd5b50610445806100246000396000f3fe608060405234801561001057600080fd5b506004361061004c5760003560e01c80630339ad53146100515780634e70b1dc1461006d5780636a7554a11461008b57806371869ee2146100bb575b600080fd5b61006b60048036038101906100669190610245565b6100eb565b005b610075610100565b6040516100829190610281565b60405180910390f35b6100a560048036038101906100a09190610245565b610106565b6040516100b2919061032c565b60405180910390f35b6100d560048036038101906100d09190610245565b610188565b6040516100e2919061032c565b60405180910390f35b60008054146100fd576100fc61034e565b5b50565b60005481565b6060600f821161014b576040517f08c379a0000000000000000000000000000000000000000000000000000000008152600401610142906103ef565b60405180910390fd5b6040518060400160405280600d81526020017f48656c6c6f2c20576f726c6421000000000000000000000000000000000000008152509050919050565b6060600f82116101cd576040517f08c379a00000000000000000000000000000000000000000000000000000000081526004016101c4906103ef565b60405180910390fd5b6040518060400160405280600d81526020017f48656c6c6f2c20576f726c6421000000000000000000000000000000000000008152509050919050565b600080fd5b6000819050919050565b6102228161020f565b811461022d57600080fd5b50565b60008135905061023f81610219565b92915050565b60006020828403121561025b5761025a61020a565b5b600061026984828501610230565b91505092915050565b61027b8161020f565b82525050565b60006020820190506102966000830184610272565b92915050565b600081519050919050565b600082825260208201905092915050565b60005b838110156102d65780820151818401526020810190506102bb565b60008484015250505050565b6000601f19601f8301169050919050565b60006102fe8261029c565b61030881856102a7565b93506103188185602086016102b8565b610321816102e2565b840191505092915050565b6000602082019050818103600083015261034681846102f3565b905092915050565b7f4e487b7100000000000000000000000000000000000000000000000000000000600052600160045260246000fd5b7f506c6561736520696e70757420612076616c756520677265617465722074686160008201527f6e20313500000000000000000000000000000000000000000000000000000000602082015250565b60006103d96024836102a7565b91506103e48261037d565b604082019050919050565b60006020820190508181036000830152610408816103cc565b905091905056fea2646970667358221220fba3e17c17a954464a45cc50e348b4a6833e29e69f2322c7df47d7b7ec8caca464736f6c63430008110033",
  "immutableReferences": {},
  "source": "// SPDX-License-Identifier: MIT\r\n// compiler version must be greater than or equal to 0.8.17 and less than 0.9.0\r\npragma solidity ^0.8.17;\r\n\r\ncontract HelloWorld {\r\n   \r\n    function requireSample (uint _i) public pure returns (string memory) {\r\n\r\n        require (_i > 15, \"Please input a value greater than 15\"); \r\n        return \"Hello, World!\";\r\n    }\r\n\r\n    function revertSample (uint _i) public pure returns (string memory) {\r\n\r\n        if (_i <= 15) {\r\n            revert(\"Please input a value greater than 15\");\r\n             \r\n        } else {\r\n           return \"Hello, World!\";\r\n        }\r\n    }\r\n    \r\n    uint public num = 0; \r\n    \r\n    function assertSample (uint _i) public view {\r\n\r\n        assert(num == 0);\r\n    }\r\n}\r\n",
  "sourcePath": "C:\\Users\\dhn\\Desktop\\project-solidity-errorhandling\\contracts\\HelloWorld.sol",
  "compiler": {
    "name": "solc",
    "version": "0.8.17+commit.8df45f5f.Emscripten.clang"
  },
  "schemaVersion": "3.4.16",
  "updatedAt": "2023-10-03T02:04:47.763Z",
  "networkType": "ethereum",
  "devdoc": {
    "kind": "dev",
    "methods": {},
    "version": 1
  },
  "userdoc": {
    "kind": "user",
    "methods": {},
    "version": 1
  }
}